:100000000C94A7000C94BC000C94BC000C94BC0095
:100010000C94BC000C94BC000C94BC000C94BC0070
:100020000C94BC000C94BC000C94BC000C94BC0060
:100030000C94BC000C94BC000C94BC000C94BC0050
:100040000C94BC000C94BC000C94BC000C94BC0040
:100050000C94BC0000407A10F35A00A0724E1809AC
:100060000010A5D4E80000E87648170000E40B541F
:10007000020000CA9A3B000000E1F50500008096EE
:100080009800000040420F000000A0860100000020
:10009000102700000000E8030000000064000000DA
:1000A00000000A00000000000100000000002C76A3
:1000B000D888DC674F0823DFC1DFAE59E1B1B796BE
:1000C000E5E3E453C63AE651997696E8E6C284261B
:1000D000EB898C9B62ED407C6FFCEFBC9C9F40F2F7
:1000E000BAA56FA5F490055A2AF75C936B6CF96773
:1000F0006DC11BFCE0E40D47FEF520E6B500D0ED38
:10010000902E0300943577050080841E080000209F
:100110004E0A000000C80C333333330F986E12833D
:100120001141EF8D2114893BE65516CFFEE6DB1811
:10013000D1844B381BF77C1D901DA4BBE4242032D6
:1001400084725E228100C9F124ECA1E53D271124CF
:100150001FBECFE5D8E0DEBFCDBF10E0A0E6B0E027
:10016000EEEBF5E102C005900D92A03BB107D9F787
:100170000E94D3050C94DD0A0C940000672B09F053
:100180009FC0009711F4D89808958130910511F41B
:10019000D99808958230910511F4DA980895833042
:1001A000910511F4DB9808958430910511F4DC98E1
:1001B00008958530910511F4DD98089586309105F4
:1001C00011F4DE9808958730910511F4DF980895B1
:1001D0008A30910511F4C09808958B30910511F47F
:1001E000C19808958C30910511F4C29808958D300E
:1001F000910511F4C39808958E30910511F4C498B7
:1002000008958F30910511F4C598089580319105B6
:1002100011F4C69808958131910511F4C798089595
:100220008431910511F4A89808958531910511F450
:10023000A99808958631910511F4AA9808958731F7
:10024000910511F4AB9808958831910511F4AC989B
:1002500008958931910511F4AD9808958A31910579
:1002600011F4AE9808958B31910511F4AF9808956B
:100270008E31910511F4909808958F31910511F404
:10028000919808958032910511F4929808958132E1
:10029000910511F4939808958232910511F4949880
:1002A00008958332910511F495980895843291054B
:1002B00011F496980895859709F09FC0979808952E
:1002C000009711F4D89A08958130910511F4D99AC4
:1002D00008958230910511F4DA9A089583309105DA
:1002E00011F4DB9A08958430910511F4DC9A089595
:1002F0008530910511F4DD9A08958630910511F449
:10030000DE9A08958730910511F4DF9A08958A30B6
:10031000910511F4C09A08958B30910511F4C19A9A
:1003200008958C30910511F4C29A08958D3091058D
:1003300011F4C39A08958E30910511F4C49A08956A
:100340008F30910511F4C59A08958031910511F40B
:10035000C69A08958131910511F4C79A08958431A0
:10036000910511F4A89A08958531910511F4A99A7F
:1003700008958631910511F4AA9A0895873191055F
:1003800011F4AB9A08958831910511F4AC9A08954F
:100390008931910511F4AD9A08958A31910511F4CE
:1003A000AE9A08958B31910511F4AF9A08958E316C
:1003B000910511F4909A08958F31910511F4919A55
:1003C00008958032910511F4929A08958132910531
:1003D00011F4939A08958232910511F4949A089534
:1003E0008332910511F4959A08958432910511F4A0
:1003F000969A0895859709F4979A0895CF93C82FF0
:1004000080FF07C061E070E084E090E00E94BE00E1
:1004100006C060E070E084E090E00E94BE00C1FF92
:1004200007C061E070E085E090E00E94BE0006C079
:1004300060E070E085E090E00E94BE00C2FF07C06F
:1004400061E070E086E090E00E94BE0006C060E0DF
:1004500070E086E090E00E94BE00C3FF07C061E04C
:1004600070E087E090E00E94BE0006C060E070E0AF
:1004700087E090E00E94BE00CF910895CF93C82FEF
:1004800060E070E082E090E00E94BE008C2F0E944D
:10049000FE0161E070E083E090E00E94BE008FE921
:1004A0009FE00197F1F700C0000060E070E083E09A
:1004B00090E00E94BE008FE99FE00197F1F700C035
:1004C0000000CF91089580E00E943E0281E00E94EA
:1004D0003E020895CF93C62F813059F480E8860FED
:1004E00082958F700E943E028C2F8F700E943E0278
:1004F0000CC0823051F480EC860F82958F700E9480
:100500003E028C2F8F700E943E02CF91089580E0B2
:100510000E94FE012FEF89EF90E021508040904033
:10052000E1F700C0000083E00E943E028FE19EE4FC
:100530000197F1F700C0000083E00E943E028FEDBA
:100540009BEA0197F1F700C0000083E00E943E02A1
:1005500082E00E943E0282E00E943E0288E00E9409
:100560003E0280E00E943E028CE00E943E0280E05B
:100570000E943E0286E00E943E020895CF93C82F5B
:1005800061E070E082E090E00E94BE008C2F8295D6
:100590008F700E94FE0161E070E083E090E00E94B5
:1005A000BE008FE99FE00197F1F700C0000060E016
:1005B00070E083E090E00E94BE008FE99FE0019729
:1005C000F1F700C000008C2F8F700E94FE0161E0E7
:1005D00070E083E090E00E94BE008FE99FE0019709
:1005E000F1F700C0000060E070E083E090E00E945E
:1005F000BE008FE99FE00197F1F700C00000CF91A6
:100600000895CF93DF93EC018881882331F0219600
:100610000E94BE0289918111FBCFDF91CF91089595
:100620008FEF8ABB9DEF97BB81BB0E948702089525
:100630001FBC80EC8EBD089582EF8FBD89E18EBD19
:100640008FE19EE497BD86BD0895209162003091B0
:1006500063002F3F4FEF340721F02817390784F04C
:1006600007C090936300809362009BBD8ABD08958C
:10067000209162003091630082179307BCF00895C7
:10068000265F3F4F30936300209362003BBD2ABD3D
:10069000EFE9FFE03197F1F700C000002091620020
:1006A00030916300281739075CF3E2CF2A503109F3
:1006B00030936300209362003BBD2ABDEFE9FFE069
:1006C0003197F1F700C00000209162003091630083
:1006D000821793075CF308952091600030916100C8
:1006E0002F3F4FEF340721F02817390784F007C058
:1006F000909361008093600099BD88BD089520911A
:1007000060003091610082179307BCF00895265F66
:100710003F4F309361002093600039BD28BDEFE961
:10072000FFE03197F1F700C00000209160003091A8
:100730006100281739075CF3E2CF2A503109309362
:1007400061002093600039BD28BDEFE9FFE03197DB
:10075000F1F700C000002091600030916100821725
:1007600093075CF308950F931F93CF93DF938C014E
:10077000EB010E941C03C63A2FEFD207A1F0C23E44
:100780008FEFD80799F0C63F9FEFD90791F0CA3095
:10079000D10591F0CE31D10591F0CA35D10591F452
:1007A00028E339E011C028E032E00EC028EE33E043
:1007B0000BC024E135E008C020E436E005C024E4A5
:1007C00037E002C02AEA35E00130110539F486B578
:1007D00097B5821B930B0E94250306C086B597B57B
:1007E000821B930B0E946C032FEF80E792E0215055
:1007F00080409040E1F700C00000DF91CF911F9151
:100800000F9108959C0192B39C7F92BB21153105F5
:1008100011F4909A08952130310539F022303105D4
:1008200019F4909A919A0895919A0895CF92DF922F
:10083000EF92FF926B017C01C701B6010E94FE0698
:100840000E94FF0720E030E04AEF54E40E945D067A
:1008500020E030E046EC52E40E948C070E94CF0674
:10086000FF90EF90DF90CF900895B19902C0B19BB7
:10087000FECFB199FECF1DBC1CBC8EB581608EBD74
:10088000B19BFECF6CB57DB5CB01A0E0B0E03EB52D
:1008900021E023272EBD0097A105B105A9F0BC01D9
:1008A000CD01660F771F881F991F0E94FE069B01CE
:1008B000AC0160E074E284E79BE40E945D060E9464
:1008C000CF060E941604089560E070E0CB01089501
:1008D000CF92DF92EF92FF92CF93DF930E940204B8
:1008E000C2E3D0E0C12CD12C76010E9435040E94D5
:1008F000FE069B01AC01C701B6010E94F1056B0128
:100900007C01219791F720E030E048E452E40E9416
:100910005D060E94CF06DF91CF91FF90EF90DF90B0
:10092000CF900895EF92FF920F931F93CF93DF9391
:10093000CDB7DEB760970FB6F894DEBF0FBECDBF60
:10094000F42EE22E0E94FE068E010F5F1F4F20E064
:1009500042E00E9454086E2D8F2D0E946A02C80149
:100960000E94010360960FB6F894DEBF0FBECDBFA4
:10097000DF91CF911F910F91FF90EF9008958F928B
:100980009F92AF92BF92CF92DF92EF92FF920F931E
:100990001F932A3531054105510578F5EDE3EE1633
:1009A000F1040105110560F449015A01860E971EF4
:1009B000A81EB91EECE88E169104A104B10400F53E
:1009C00067017801C60ED71EE81EF91EE8EACE16AA
:1009D000D104E104F104B8F4DC01CB01885791099A
:1009E000A109B109820F931FA41FB51F4B97A10541
:1009F000B10560F085E090E00BC081E090E008C0B8
:100A000085E090E005C083E090E002C084E090E0E3
:100A10001F910F91FF90EF90DF90CF90BF90AF901C
:100A20009F908F9008954F925F926F927F928F92D6
:100A30009F92AF92BF92CF92DF92EF92FF920F936D
:100A40001F93CF93DF930E94630260E081E00E94D6
:100A50006A0284E690E00E9401036EE170E081E0AA
:100A600090E00E94B30360E070E081E090E00E94BB
:100A7000B3030E94630260E081E00E946A028CE698
:100A800090E00E9401030E9418030E94630260E04C
:100A900082E00E946A028BE790E00E94010381E0FD
:100AA00090E00E9468044B015C0182E090E00E94AB
:100AB00068042B013C0183E090E00E9468046B0114
:100AC0007C0122E030E042E050E0C501B4010E9428
:100AD000920427E030E042E050E0C301B2010E94FE
:100AE00092042CE030E042E050E0C701B6010E94E1
:100AF000920487017601A3019201C501B4010E940D
:100B0000BF04EC0160E081E00E946A02C130D105BF
:100B100059F48AE890E00E94010362EE7FEF82E0E0
:100B200090E00E94B30328C0C430D10559F48EE888
:100B300090E00E94010366EF7FEF82E090E00E9468
:100B4000B3031AC0C330D10559F485E990E00E947F
:100B500001036EE170E082E090E00E94B3030CC0FC
:100B6000259751F48AE990E00E9401036AE070E061
:100B700082E090E00E94B30362EE7FEF81E090E0BC
:100B80000E94B303DF91CF911F910F91FF90EF90DF
:100B9000DF90CF90BF90AF909F908F907F906F909D
:100BA0005F904F9008950E9410030E94630260E0DE
:100BB00081E00E946A0286EA90E00E9401030E949E
:100BC0001C0360E070E081E090E00E94B30360E00D
:100BD00070E082E090E00E94B3030E941305FDCF15
:100BE0005058BB27AA270E9408060C9452070E945F
:100BF000440738F00E944B0720F039F49F3F19F466
:100C000026F40C9441070EF4E095E7FB0C943B07A7
:100C1000E92F0E94630758F3BA1762077307840726
:100C2000950720F079F4A6F50C9485070EF4E0956D
:100C30000B2EBA2FA02D0B01B90190010C01CA0196
:100C4000A0011124FF27591B99F0593F50F4503E41
:100C500068F11A16F040A22F232F342F4427585F33
:100C6000F3CF469537952795A795F0405395C9F74B
:100C70007EF41F16BA0B620B730B840BBAF0915003
:100C8000A1F0FF0FBB1F661F771F881FC2F70EC0A2
:100C9000BA0F621F731F841F48F487957795679575
:100CA000B795F7959E3F08F0B0CF9395880F08F061
:100CB0009927EE0F9795879508950E9471060C94D9
:100CC00052070E944B0758F00E94440740F029F455
:100CD0005F3F29F00C943B0751110C9486070C944C
:100CE00041070E94630768F39923B1F3552391F3F9
:100CF000951B550BBB27AA2762177307840738F08B
:100D00009F5F5F4F220F331F441FAA1FA9F335D0E7
:100D10000E2E3AF0E0E832D091505040E695001C9B
:100D2000CAF72BD0FE2F29D0660F771F881FBB1F55
:100D3000261737074807AB07B0E809F0BB0B802D33
:100D4000BF01FF2793585F4F3AF09E3F510578F05F
:100D50000C943B070C9486075F3FE4F3983ED4F372
:100D6000869577956795B795F7959F5FC9F7880F33
:100D7000911D9695879597F90895E1E0660F771F85
:100D8000881FBB1F621773078407BA0720F0621B16
:100D9000730B840BBA0BEE1F88F7E09508950E9441
:100DA0006B0788F09F5798F0B92F9927B751B0F08B
:100DB000E1F0660F771F881F991F1AF0BA95C9F7DF
:100DC00014C0B13091F00E948507B1E008950C94F1
:100DD0008507672F782F8827B85F39F0B93FCCF3A4
:100DE000869577956795B395D9F73EF4909580955C
:100DF000709561957F4F8F4F9F4F0895E89409C07C
:100E000097FB3EF490958095709561957F4F8F4F3D
:100E10009F4F9923A9F0F92F96E9BB279395F69553
:100E2000879577956795B795F111F8CFFAF4BB0FD1
:100E300011F460FF1BC06F5F7F4F8F4F9F4F16C035
:100E4000882311F096E911C0772321F09EE8872FBF
:100E5000762F05C0662371F096E8862F70E060E07B
:100E60002AF09A95660F771F881FDAF7880F9695F4
:100E7000879597F9089597F99F6780E870E060E09B
:100E800008959FEF80EC089500240A941616170623
:100E900018060906089500240A941216130614066B
:100EA00005060895092E0394000C11F4882352F0CE
:100EB000BB0F40F4BF2B11F460FF04C06F5F7F4F86
:100EC0008F4F9F4F089557FD9058440F551F59F06D
:100ED0005F3F71F04795880F97FB991F61F09F3F27
:100EE00079F087950895121613061406551FF2CF50
:100EF0004695F1DF08C0161617061806991FF1CFA0
:100F000086957105610508940895E894BB276627C6
:100F10007727CB0197F908950E949F070C945207F9
:100F20000E94440738F00E944B0720F0952311F0EF
:100F30000C943B070C94410711240C9486070E94E3
:100F4000630770F3959FC1F3950F50E0551F629FA3
:100F5000F001729FBB27F00DB11D639FAA27F00D12
:100F6000B11DAA1F649F6627B00DA11D661F829F39
:100F70002227B00DA11D621F739FB00DA11D621F1E
:100F8000839FA00D611D221F749F3327A00D611D3B
:100F9000231F849F600D211D822F762F6A2F11241D
:100FA0009F5750409AF0F1F088234AF0EE0FFF1F50
:100FB000BB1F661F771F881F91505040A9F79E3FA7
:100FC000510580F00C943B070C9486075F3FE4F3D7
:100FD000983ED4F3869577956795B795F795E795FD
:100FE0009F5FC1F7FE2B880F911D9695879597F906
:100FF000089519F416F40C9441070C943F080E94CC
:101000006B07B8F39923C9F3B6F39F57550B87FFC6
:101010000E944D080024A0E640EA900180585695B1
:10102000979528F4805C660F771F881F20F026179D
:101030003707480730F4621B730B840B20293129D2
:101040004A2BA69517940794202531254A2758F74F
:10105000660F771F881F20F026173707480730F4E0
:10106000620B730B840B200D311D411DA09581F780
:10107000B901842F9158880F9695879508959F3FC1
:1010800031F0915020F4879577956795B795880F43
:10109000911D9695879597F9089591505040660F48
:1010A000771F881FD2F70895EF920F931F93CF9366
:1010B000DF93E80147FD02C034E001C034E1042EB3
:1010C000000C550B57FF03C0519541955109E32E74
:1010D000022F242FAE010E947408CE01DF91CF9120
:1010E0001F910F91EF900895A9E0B0E0EAE7F8E0D2
:1010F0000C94AC0A6A01122FB02E2BE3201720F0BB
:10110000FF24F394F00E02C02CE3F22E0F2D27E003
:10111000AE014F5F5F4F0E94CE09BC014981842F11
:101120008970813031F0E1FC06C0E0FE06C090E23B
:1011300005C09DE203C09BE201C090E05E2D5071AE
:1011400043FF3CC0911102C083E001C084E08117DD
:1011500018F4212F281B01C020E051110BC0F6010B
:10116000822F30E2882319F031938150FBCFC20ED9
:10117000D11C20E0992329F0D6019C93F6013196E9
:101180006F01C6010396E2FE0AC03EE4D6013C931D
:1011900041E411964C93119712963C9306C03EE69B
:1011A000F601308341E641833283FC01322F40E275
:1011B000332309F442C041933150FACF42FF44C077
:1011C000911102C083E001C084E0811718F4212F3F
:1011D000281B01C020E051110BC0F601822F30E224
:1011E000882319F031938150FBCFC20ED11C20E02F
:1011F000992329F0D6019C93F60131966F01C6011F
:101200000396E2FE0BC039E4D6013C933EE411960E
:101210003C93119736E412963C9307C039E6F601E9
:1012200030833EE6318336E63283FC01322F40E2E2
:10123000332319F041933150FBCFFC01E20FF11D34
:1012400010828EEF9FEFA6C021E030E0911102C026
:1012500020E030E0161617061CF4FB01319602C0A0
:10126000E1E0F0E02E0F3F1FBB2021F0EB2DF0E07E
:10127000319602C0E0E0F0E02E0F3F1FE12FF0E0DA
:101280002E173F071CF4121B212F01C020E08E2DCA
:10129000887159F4F601822F30E2882319F03193D6
:1012A0008150FBCFC20ED11C20E0992329F0D6013A
:1012B0009C93F60131966F0151110BC0F601822FFC
:1012C00090E3882319F091938150FBCFC20ED11C7B
:1012D00020E00F2D060F9A81342F307144FF03C098
:1012E000913309F40150101624F4093018F008E085
:1012F00001C001E0AB0177FF02C040E050E0FB011C
:10130000E41BF50BA1E0B0E0AC0FBD1FEA0FFB1F23
:101310008EE2A82E4B01801A91080B2D10E011953A
:10132000019511094F3FBFEF5B0721F4D601AC9245
:1013300011966D01641775072CF08416950614F448
:10134000818101C080E3415051093196D601119647
:101350007D014017510724F0D6018C936701E2CF3D
:101360006417750739F4963320F4953319F4311165
:1013700001C081E3F6018083F701822F90E2882388
:1013800019F091938150FBCFF701E20FF11D10820C
:1013900080E090E02996ECE00C94C80A283008F030
:1013A00027E03327DA01990F311D87FD9160009600
:1013B0006105710539F432602E5F3D9330E32A9563
:1013C000E1F708959F3F30F080387105610509F01D
:1013D0003C5F3C5F3D93913008F08068911DDF9346
:1013E000CF931F930F93FF92EF92192F987F9695AB
:1013F000E92F96959695E90FFF27E255FF4F99271C
:101400003327EE24FF24A701E701059008940794F1
:1014100028F4360FE71EF81E491F511D660F771F6F
:10142000881F991F0694A1F70590079428F4E70EEA
:10143000F81E491F561FC11D770F881F991F661F71
:101440000694A1F70590079428F4F80E491F561F3B
:10145000C71FD11D880F991F661F771F0694A1F71C
:101460000590079420F4490F561FC71FD81F990FE6
:10147000661F771F881F0694A9F78491109517702F
:1014800041F0D695C79557954795F794E7941A95E7
:10149000C1F7E4E5F0E068941590159135916591F8
:1014A000959105907FE27395E118F10A430B560B75
:1014B000C90BD009C0F7E10CF11E431F561FC91F0D
:1014C000D01D7EF4703311F48A95E6CFE894015074
:1014D00030F0080F0AF40027021708F4202F239594
:1014E000022F7A3328F079E37D932A95E9F710C02B
:1014F0007D932A9589F60694979567953795179564
:101500001794E118F10A430B560BC90BD00998F058
:1015100023957E9173957A3308F070E37C932013C2
:10152000B8F77E9170617D9330F0839571E37D9380
:1015300070E32A95E1F71124EF90FF900F911F912E
:10154000CF91DF91992787FD909508952F923F9233
:101550004F925F926F927F928F929F92AF92BF92C3
:10156000CF92DF92EF92FF920F931F93CF93DF936F
:10157000CDB7DEB7CA1BDB0B0FB6F894DEBF0FBECC
:10158000CDBF09942A88398848885F846E847D8419
:101590008C849B84AA84B984C884DF80EE80FD801B
:1015A0000C811B81AA81B981CE0FD11D0FB6F89491
:0E15B000DEBF0FBECDBFED010895F894FFCF52
:1015BE00FFFFFFFF57414954494E470053454E53D5
:1015CE004F522052454144494E4700523A5F5F20E8
:1015DE00473A5F5F20423A5F5F00524544005945EB
:1015EE004C4C4F5700424C55450057484954450006
:1015FE00475245454E005354415254494E47000000
:00000001FF
