S0120000536572766F54657374322E7372656331
S11300000C942A000C943F000C943F000C943F0085
S11300100C943F000C943F000C943F000C943F0060
S11300200C943F000C943F000C943F000C943F0050
S11300300C943F000C943F000C943F000C943F0040
S11300400C943F000C943F000C943F000C943F0030
S11300500C943F0011241FBECFE5D8E0DEBFCDBF16
S113006010E0A0E6B0E0E8E8F2E002C005900D92EE
S1130070A436B107D9F70E9404010C9442010C94F0
S1130080000020916200309163002F3F4FEF34074E
S113009021F02817390784F007C0909363008093F8
S11300A062009BBD8ABD0895209162003091630077
S11300B082179307BCF00895265F3F4F3093630087
S11300C0209362003BBD2ABDEFE9FFE03197F1F7D1
S11300D000C00000209162003091630028173907A6
S11300E05CF3E2CF2A50310930936300209362001D
S11300F03BBD2ABDEFE9FFE03197F1F700C00000F6
S11301002091620030916300821793075CF3089595
S113011020916000309161002F3F4FEF340721F0B0
S11301202817390784F007C090936100809360001A
S113013099BD88BD089520916000309161008217B7
S11301409307BCF00895265F3F4F309361002093DE
S1130150600039BD28BDEFE9FFE03197F1F700C039
S113016000002091600030916100281739075CF38A
S1130170E2CF2A503109309361002093600039BDE9
S113018028BDEFE9FFE03197F1F700C000002091AE
S1130190600030916100821793075CF30895663A1A
S11301A02FEF720769F0623E2FEF720761F06E3134
S11301B0710561F06A35710561F428E339E00BC01B
S11301C028E032E008C028EE33E005C024E437E03C
S11301D002C02AEA35E0019739F486B597B5821B47
S11301E0930B0E94410006C086B597B5821B930B02
S11301F00E9488008FEF90E722E0815090402040D9
S1130200E1F700C00000089581B38FEF81BB8FB583
S1130210826F8FBD8EB589618EBD8FE19EE497BDDF
S113022086BD6EE170E081E090E00E94CF0060E066
S113023070E081E090E00E94CF0062EE7FEF82E008
S113024090E00E94CF0062EE7FEF81E090E00E9498
S1130250CF006EE170E081E090E00E94CF0060E0AA
S113026070E081E090E00E94CF006EE170E082E0F7
S113027090E00E94CF0062EE7FEF81E090E00E9468
S10B0280CF00CFCFF894FFCFAB
S1070288FFFFFFFF72
S9030000FC
